:020000041000EA
:1000000000B5324B212058609868022188439860DF
:10001000D860186158612E4B002199600221596106
:100020000121F02299502B49196001219960352056
:1000300000F044F80222904214D00621196600F024
:1000400034F8196E01211966002018661A6600F04E
:100050002CF8196E196E196E052000F02FF8012189
:100060000842F9D1002199601B49196000215960AB
:100070001A491B48016001219960EB211966A021F2
:10008000196600F012F800219960164914480160C1
:100090000121996001BC002800D000471248134993
:1000A000086003C880F30888084703B5996A0420EC
:1000B0000142FBD001200142F8D103BD02B5186610
:1000C0001866FFF7F2FF186E186E02BD00000240BE
:1000D000000000180000070000035F00212200005C
:1000E000F4000018222000A00001001008ED00E03C
:1000F00000000000000000000000000074B24E7A12
:1001000000200420F7010010CB010010CD010010E9
:10011000C9010010C9010010C9010010C901001077
:10012000C9010010C9010010C9010010CF01001061
:10013000C9010010C9010010D1010010D301001045
:10014000C1010010C1010010C1010010C101001067
:10015000C1010010C1010010C1010010C101001057
:10016000C1010010C1010010C1010010C101001047
:10017000C1010010C1010010C1010010C101001037
:10018000C1010010C1010010C1010010C101001027
:10019000C1010010C1010010C1010010C101001017
:1001A000C1010010C1010010C1010010C101001007
:1001B000C1010010C1010010C1010010C1010010F7
:1001C000EFF30580103800BE00BE00BE00BE00BECA
:1001D00000BE00BEF2EB8871B03A0010D43A0010B5
:1001E0003802001090A31AE71E481F49086006C88D
:1001F00081F3088810471D480068002801D019487D
:10020000F3E70DA40ECC002902D000F012F8F9E7B4
:100210001749184A002000E001C19142FCD116495B
:100220008847164988471649884700BEFDE701C937
:1002300001C29A42FBD37047D43A0010C00000209C
:10024000681000207C4A00100000042000000420F8
:100250007C4A001000100420001004200000000060
:10026000704700000000000008ED00E0000000D032
:1002700068100020E81C002059190010910300109C
:1002800051190010F8B5C04606480749091A8B10E5
:10029000C90FC91810B5491003D0044B002B00D06A
:1002A000984710BD68100020681000200000000072
:1002B000054B10B5002B03D00449054800E000BFF2
:1002C000FFF7E2FF10BDC04600000000A81C0020A0
:1002D000EC370010F0B5C64600B52A4D2A4F2B4E1C
:1002E00090B045E00400402800D94024220069462F
:1002F000002002F01BFC03212B680133DA17920F58
:100300009B180B409B1A98463B68984530D02A684A
:10031000013CD3009B186A4612785B00F2542A68AD
:10032000D3009B185B002A68F3185C70D3009B18FD
:100330005B00F3185B78102B06D92A68D3009B1852
:1003400010225B00F3185A702B682A68D800C01876
:10035000D3009B185B00F3185A786B4640000230BC
:10036000591C301801F0CCFA4346BFF35B8F2B6069
:10037000002002F0CFFB0028B4D110B080BCB846FA
:10038000F0BDC0461C18002068180020201800206E
:10039000F8B5DE4657464E464546E0B501F0D0FB7F
:1003A000192000F0F7F8D02380221B0692045A622D
:1003B0000021002002F0EAFC4C4B4D4C99464D4B7D
:1003C0004D4F9B464D4B4E4D984603239A464D4EFE
:1003D00001200021404201F057FE22683B689A420A
:1003E0001DD023681222D900C918490049442800A9
:1003F00001F086FA514623680133DA17920F9B18F1
:100400000B409B1A23602B78022B4ED0032B2ED04F
:10041000012B04D1D02380221B0692045A61336839
:10042000002BD5D000F0A4FE43461A685B68121A70
:100430008B41002BCCDC01D1002AC9D15B460122C3
:100440001B7853405A46137035D0D02380221B06A8
:1004500092045A613368013B3360002B35D1D022BE
:1004600080211206890491615A461370B0E76B78B7
:10047000012BD4D9EB785A465B003360002313700C
:10048000D02380221B0692049A6100F071FE0023A3
:100490001D4A8018594102000B1E02DA01221B4B33
:1004A000524241460A604B60B9E7D02380221B06C6
:1004B00092049A61B3E7D02380221B0692049A61CA
:1004C0003368013B3360002BC9D000F051FE00239C
:1004D0000D4A8018594102000B1E02DA01220B4B13
:1004E000524241460A604B6072E7C0462018002025
:1004F00068180020E51C00201C180020E8110020CE
:1005000000180020FC16002090D00300FFFFFF7FA2
:1005100000487047643900100048704744390010A3
:1005200070B5002823D004282CD8174B8000C5585C
:10053000280003F0B9F8C0B2041C1F2812D8E4B296
:10054000002808D00023114AE95C01331180D9B298
:1005500002328C42F8D8C0220134E3B25B00920030
:1005600013430CE01F24E4B20028EBD1F3E7064B61
:1005700002221968054801F0C3F9C1239B00044811
:10058000038070BD0020FCE7A00F00204A1400206B
:10059000481400200123D022834012069362936105
:1005A000094A83009A1811684022514080320A405B
:1005B0000649C0008C4663441A60054B9C460523DF
:1005C000604443607047C04604C0014004D001400D
:1005D000004001408023DB051868000F7047C046CB
:1005E0000FB400B5084883B001F0F6FA049B002B65
:1005F00007D005A91800019101F090F9034801F016
:10060000EBFA012001F0A2F9383800104838001048
:1006100070B5EFF3108C72B60D4D2B68002BFCD02B
:10062000BFF35F8F0724CB08C618C05C01230C40C2
:10063000A3401C000440034207D118433070BFF3AD
:100640005F8F2C608CF3108870BD1000FFF7C8FF1F
:100650002C0100D0F8B54746CE46884680B5EFF36A
:10066000108C72B61C4D2C68002CFCD0BFF35F8F31
:100670009A4222D807210126894602E0013293429C
:1006800018D34D4637001540AF40D4080119045D1A
:100690002742F3D110003C430C70BFF35F8F002260
:1006A0000D4B1A608CF3108800280EDBC0BCB946D5
:1006B000B046F8BD01204042EFE7BFF35F8F002353
:1006C0002B608CF31088012040424346002BEDD074
:1006D0000898FFF785FFC0462C0100D0044A107827
:1006E000431CDBB2172B00D9102313707047C04690
:1006F000B40F002010B5064B064C82B001000093E9
:1007000018221F232000FFF7A5FF02B010BDC0462E
:100710004C380010141800200021044B044ABFF389
:100720005F8F02C39342FAD17047C046000100D0E8
:10073000800100D0054B064A1360064A13605360DF
:100740009360D360136153619361704780808080B0
:1007500000E400E004E400E01F2318401E3B834057
:10076000002905D0C021044A490053501360704746
:10077000802201498B50FAE700E100E070B50D00DE
:10078000EFF3108672B60F4A1368002BFCD0BFF34C
:100790005F8F0D4B10309B6884001B590B4A9342AE
:1007A00003D09D4201D000F083FE074B9B681D5192
:1007B000BFF35F8FBFF35F8F0022024B1A6086F397
:1007C000108870BD240100D000ED00E0C1010010D0
:1007D000F0B557464E46DE464546E0B585B00600C4
:1007E00000911700EFF3108B72B66A4A1368002B62
:1007F000FCD0BFF35F8F0025674B5D579A46002DF5
:1008000000DAA9E06B00654C01935B199B009846E8
:10081000A146C1444B4652469B7910361370604B3B
:10082000B6009B6899590B1B2F2B33D95D4B99420E
:1008300000D0ACE0019B42469C465B4B6544AD005A
:1008400063535A4B0232A218043B9B1A1B05584AA9
:100850005B0D651913436B80564B0121AB80FF2361
:10086000AB71009BEF71AB604B460B4319004C4BD7
:100870009B689951BFF35F8FBFF35F8F0022454B99
:100880001A608BF3108805B0F0BCBB46B246A9468F
:10089000A046F0BD01200A008243D3798C46BB42BA
:1008A00031D84546130044491B1B5B415943090D90
:1008B0003D4B63533D4B02356519043B5B1B1B05E8
:1008C0003B4D5B0D2B43AA464D466B800425AC4641
:1008D0005546E044131F44441B1B1B055B0D1D4381
:1008E0004B46997100999D8099604946DF71334B61
:1008F00001431360BBE75800C01880002018C1797D
:10090000B9422FD902000623D356002BF3DA029303
:100910002B4B61460393131D9A4604235B429C466E
:10092000E14450464B461B1A1B055B0D9C46204B71
:10093000957198466346404603439380019B5A193C
:100940009200039BA418A380029B1C4AA371009BE6
:100950002260E771A3608AE700F0AAFD00255346F4
:100960005D574FE7908802934005131D9A46031583
:1009700061469C464046D444634604302018181A09
:10098000E0230005400D1B0218430390C5E700F06B
:100990008FFD4FE7240100D0E41C0020B80F002099
:1009A00000ED00E0C101001000A1FFFFE80F0020F2
:1009B00000E0FFFF01BDFFFFAAAA00000148804739
:1009C00001BD000070B501240443EFF30581EFF38E
:1009D000108C72B6214A1368002BFCD0BFF35F8FD6
:1009E0001F4B05001F4AED1A6D416A43120D1E4D43
:1009F0008900AE6852B27658A6421CD006215956DC
:100A000091421CD012215956914222D01E21595692
:100A1000914220D02A2159560324914210D0134BE1
:100A200019781A708171BFF35F8F00220B4B1A6027
:100A30008CF3108870BDAB680D4C5C50EFE7002460
:100A40006100091989005B18FF2199710949998092
:100A5000E5E70124F4E70224F2E7C046240100D0D0
:100A6000B80F0020AAAA000000ED00E0E41C00205E
:100A7000C101001001BDFFFF024B9C46614489008B
:100A8000016070474000003470B5114C114DAC420C
:100A90000FD2FF262368002B0CD0FFF71FFE0100AA
:100AA0002000FFF7E9FFA680BFF35F8F0834AC4258
:100AB000F0D370BDFFF712FE01002000FFF7DCFF4E
:100AC0002671BFF35F8F0834AC42E3D3F1E7C04631
:100AD000601000206810002010B50400FFF7FEFD34
:100AE00001002000FFF7C8FFFF232371BFF35F8FD2
:100AF00010BDC04610B504000120FFF7FBFD034BFD
:100B0000C3189B002360BFF35F8F10BD400000340B
:100B10000A4B1968EFF3108072B60A68002AFCD0FD
:100B2000BFF35F8F1B68BFF35F8F00221A6080F3F3
:100B3000108840BF002000217047C046DC1C002008
:100B4000F0B5DE4657464E464546E0B587B0EFF372
:100B50000583032201251A40954091008846A94645
:100B6000B34B03925C58B34B1D60B34B04934B469D
:100B7000B24843630823E55E002D37DAA3881BB231
:100B8000002B00DBADE0A379002B00D0EEE00823C2
:100B9000E05E002820DB430062691B18DB00D318ED
:100BA0009E68DD68731C00D111E1A4480100414436
:100BB000826A0B69B71A9B1A9F4215D30123026AF6
:100BC000039883401A420FD09C4800F0C9FA8D4226
:100BD00002DCCCD18642CAD940BF07B0F0BCBB46CC
:100BE000B246A946A046F0BD0E61EDE762696B0012
:100BF00092465B19DB009A4453469E68DF6800F01A
:100C0000AFFA8F42BADC00D103E1002F00DAE8E04E
:100C10005246534652691B699346049A934200D147
:100C2000D9E052460821605E5288000459461043BC
:100C30009847009001910099019A0B00100013430E
:100C400000D1CEE013000A00B61A9F41002806DB4F
:100C50007A4800F085FA009E019F36184F415346AE
:100C60009E60DF6000229A5E002A00DA86E7530069
:100C700099186069C900411802938B68C9689B463E
:100C8000B94200DD7AE702D1B34200D976E7082302
:100C90009C46A444059565462281A446029B2C00EF
:100CA00006E053009918C90041188D68C968AB4621
:100CB0009B18DB00C318B94206DC00D1B3E01C006E
:100CC0000023E25E002AECDA230064469C46534689
:100CD0001A806346059D1D80A3881BB2002B00DA95
:100CE00051E72269EFF3108172B61368002BFCD034
:100CF000BFF35F8F0123A7885B42A3803FB22369C4
:100D0000BFF35F8F00221A6081F31088002F00DA92
:100D100039E72300083322009A4666697B00DB1915
:100D2000DB00F318996850468C460824115FDD6893
:100D3000002910DB029306E0AB4244D00023E15EC1
:100D40002000002906DB4C006418E4003419E36835
:100D5000AB42F1DD029B078000201F5E1980002F4F
:100D6000DCDA1400A379002B00D110E70023A37173
:100D700026000823E15E08364B1C00D12CE7080052
:100D8000A246656902E03E004B1C1AD04B005B187E
:100D9000DB00EF180A008C46E95E7B881BB2002B53
:100DA000F1DA01235B42DC17BB60FC60824205D0B4
:100DB000534631801B893B8053461A8160464B1C49
:100DC000E4D15446E5E6A3686345B7D9C2E76B1C96
:100DD00000D0EAE6F8E65B4658461B6998470028CB
:100DE0001BD153461B8822692381EFF3108372B60F
:100DF00011680029FCD0BFF35F8F514662880A80DA
:100E000022696580BFF35F8F0021116083F3108832
:100E1000B4E6864200D8F8E6B0E65B461A685B683E
:100E20000092019307E7B34500D848E74CE7C04676
:100E3000C01C00203C700540410B001000400540E4
:100E400070B52E4C2569002D04D00A212C48FFF7DF
:100E500013FE70BD2B4E0321300000F077F9E660E1
:100E6000FFF73CFC284B03229C46D02322701B0634
:100E70001B6801216370254B6044A3600F23800031
:100E800020610220638063694942A1801980023198
:100E9000198647311D83585218315A5275325C39C0
:100EA000995218320131995218320131995218323F
:100EB00001319952083518329D5202311832995237
:100EC00018320131995218320131995218320131D8
:100ED00099521832013199521832013199520C4B02
:100EE0000C49DC6001303562FFF748FC012103202A
:100EF000FFF732FC084B1D60A7E7C046001000203A
:100F0000DC1C00200040054040000034FFFF1000C2
:100F1000C01C0020410B00103860054070B5010076
:100F20000469EFF3108C72B620680028FCD0BFF380
:100F30005F8F02200D5E4C6968004019C0002418C4
:100F40000869002D36DB26884E80BFF35F8F0026B0
:100F500006608CF31088E360638804980133206195
:100F60005B0405985B0CA26060611A1C002B1FD00B
:100F700093B22804628018430A69EFF3108C72B6AA
:100F80001368002BFCD0BFF35F8F8B8823808D808C
:100F90000B69BFF35F8F00221A608CF310880B7807
:100FA00001329A40CB6808498C4663441A6070BD90
:100FB0000122DDE7BFF35F8F002303608CF310880D
:100FC00001204042F3E7C0463C20000010B54389B1
:100FD0000A1493421ADD53009B184269DB00D318B0
:100FE0000469EFF3108C72B62268002AFCD0BFF3BC
:100FF0005F8F5A88090494B2090C8A4208D00369A9
:10100000BFF35F8F00221A608CF31088002010BDA0
:101010008022120214435C80012302698371BFF3B2
:101020005F8F002111608CF31088044902788C4690
:101030009340C268012062441360E8E73C2000004E
:10104000F0B557464E46DE464546E0B506000F0071
:1010500085B0EFF3058399468B46002B12D03849B3
:1010600000204B6ABB4206D38A6ADB1B591E8B41A8
:10107000B2424041184305B0F0BCBB46B246A94657
:10108000A046F0BD2F4B9A46DB68984653461B7826
:101090004046039300F064F84246039B0400043387
:1010A0009B009B580D001B1A39003000001BA94102
:1010B000894510DC0DD020BF214A0020536A5B45D2
:1010C000D9D3926ADB1B591E8B41B242404118436F
:1010D000D1E78342EFD900F04BF832003B00121AFF
:1010E0008B41002B1ADB00230193174B3200009336
:1010F00050463B00FFF712FF011E0FDD104B5A6AEE
:101100005A451BD39B6AB34216D35046FFF75EFF86
:101110000B4A0020536A5B45ADD3D2E7084A002052
:10112000536A5B45A7D30020926ADB1BB242404161
:101130005A1E934118439EE75A45E6D120BFE4E783
:101140000040054000100020110B001010B5024AAD
:101150000248FFF75DFA10BD68380010181800202B
:101160000300416A0A00986A596A8A42FAD17047B4
:10117000034B596A0A00986A596A9142FAD170473A
:1011800000400540F8B5DE464E4657464546E0B5B8
:101190008B4605000A991800160000F0B3FA0A9B66
:1011A0006C001F02324B64199C46A40064446368BF
:1011B00081469F4200D967602B1FDBB29846012B06
:1011C00030D9C02380229B01E31812011A60294BF9
:1011D000AD0059599A4600291BD17301E0262268B7
:1011E00053401E40802342465B01E3181E60012AE3
:1011F00030D9802380229B01E31812011A605346E4
:101200004A4667605A51F0BCBB46B246A946A04662
:10121000F8BD586900F076FA013043001B18033B13
:10122000FDD2DAE75B46012BCBD1C02303229B0121
:10123000E3181A60023AA3681A42FCD07301E02650
:101240002268AD0053401E4080230A4A5B0192464B
:10125000E3181E605A462168514003220A401A6072
:1012600001225B469A40A3681A42FCD0C1E7C046FF
:10127000008000406C180020F0B546464F46D64628
:10128000C0B51F00344B44009C462418A40064449D
:10129000636888461600FF2B02D880235B006360DA
:1012A000031FDBB29A46012B30D9C02380229B0159
:1012B000E31812011A60294B8500595999460029F3
:1012C0001BD17301E026226853401E408023524602
:1012D0005B01E3181E60012A30D9802380229B0124
:1012E000E31812011A6080235B0063604B465F5174
:1012F000E0BCBA46B146A846F0BD586900F002FA13
:10130000013043001B18033BFDD2DAE74346012BB3
:10131000CBD1C02303229B01E3181A60023AA368D1
:101320001A42FCD07301E0262268850053401E401B
:1013300080230A4A5B019146E3181E6042462168F9
:10134000514003220A401A60012342469340A2689A
:101350001342FCD0C1E7C046008000406C1800205A
:10136000014B8000C05870476C180020F8B504008D
:1013700021481E0017000D0000F0C4F901003800DC
:1013800000F0C0F9069B36041B031E432368002BA4
:1013900020DB1A4B1A49E3185A1E9341802292010E
:1013A00094465B421B0B174A1B0363441360164AA7
:1013B00013601F000A689743FBD1144B2560E218A5
:1013C0002123A06013602368002BFCDA0823E66069
:1013D0001360F8BD3F2322681340AB42D9D1A36804
:1013E0001B051B0D8342D4D1EE22E368D2021340C9
:1013F000B342CED1EDE7C046001BB7000040FDBFB1
:1014000008C0004000E0004000F000400430000050
:101410008023024A9B000B43D36270470080054043
:10142000002310B50100988A1B8B984710BDC04659
:10143000162310B50100188802331B88984710BD89
:10144000F8B54746CE4680B50F1E18D014239946EE
:10145000043304000025012698464B46188843466D
:1014600021681B88984701C4431E984101350640F6
:10147000AF42F2D13000C0BCB946B046F8BD01263B
:10148000F8E7C046AA23064A1B0113608D235B00C0
:10149000D3600449044B19605368002BFCDA704791
:1014A0000040024000B0FA00006002407047C046B1
:1014B00010B50148FFF794F88C38001070B5074D4F
:1014C000074EB54209D20024013E761BB60808CD6E
:1014D000984723000134B342F9D170BDA8370010FA
:1014E000E4370010054B064A06491A60064A074BC6
:1014F0001A6010000B689843FBD1704700E0004071
:10150000BFCDFBFE08C00040FE7F3C0000F0004065
:10151000044BDB6C002B03D18022034BD2021A60F8
:101520007047C046000011504C201150044A054B32
:101530001A60054A1368DB018033FBD17047C0464F
:10154000FFFFFF0100F0004008C000404022034BB5
:101550009A675A671A67DA667047C04600F001401A
:1015600010B5FFF7D9F810BDF8B52749274C284D1D
:10157000641AA6103200302E00D9302228009200C2
:1015800000F0BEF9BC2C3BD830202F232C19640767
:10159000204A801BE40F9B1B052B16D93700002C1B
:1015A00002D0B300771CEA50001B33199B0041089E
:1015B000EB18C900C9181A605A6008339942FAD169
:1015C000012303421CD09843C619B300EA50731C90
:1015D0002F2E15D09B00EA50B31C2E2E10D09B004E
:1015E000EA50F31C2D2E0BD09B00EA50331D2C2EFD
:1015F00006D09B00EA50731D2B2E01D09B00EA50B1
:10160000054B9D60F8BDC04600010010C0010010F0
:1016100000000020C101001000ED00E0002310B523
:10162000294C82B0A367FFF72DFF0122274B1A60D8
:10163000636C012BFCD10322254B1A60224A936B69
:10164000012BFCD1013300930121224A22480433AB
:10165000FFF78CFE052301210093204A2048FFF765
:1016600085FE0022022104201E4BFFF705FE00220A
:10167000012105201C4BFFF7FFFD00220021072060
:101680001A4BFFF7F9FD002200210820174BFFF746
:10169000F3FD8023DB000093002200210920134B7F
:1016A000FFF770FD0022104B00210620FFF7E4FD3C
:1016B0000420FFF755FE0E4900F024F80100002039
:1016C000FFF7A6FE02B010BD008000403CB0004015
:1016D00030B00040002F685900800240008C8647DF
:1016E00000C00240001BB70040597307006CDC02C9
:1016F00040420F0001480421014B184720100020F0
:1017000041140010114A936F9B0813D21066516662
:10171000002905D0FFE7FFE7FFE7516F106F704723
:1017200004B5002801D00020C04302F015F80021C4
:1017300004BDC046F0B5146E556E576F166FFFF7B7
:10174000E5FF1466556657671667F0BD000000D0C8
:10175000132370B51D78012D19D014DD1F48FFF734
:1017600067FE06001E48FFF763FE1E4C8022310014
:10177000200000F0C5F8022D2DD01B48FFF750FEC9
:101780001A4B186070BD1A4B164CA364F5E7184B42
:10179000144C23606360A360E36023616361A36111
:1017A000E36123626362A362E36223636363A3630F
:1017B000E36323646364A364E36423656365A365EF
:1017C000E36523666366A366E36623676367A367CF
:1017D000E367A364D1E7064BA364CEE7534400005C
:1017E00053460000F01100204C330000D81C0020AC
:1017F000F517001007B5604601880A0A0230DF2A93
:10180000FAD1C9B2820804D3028840880004104388
:1018100000E00068014A5050039007BDF01100201D
:1018200051434343C9188C46110C83B24B4310B447
:10183000040C614392B280B2504362431C041B0CFF
:10184000001910BC59411304120CC01851416144D5
:1018500070470000132310B512481C78FFF7E8FD0D
:101860000100012C0AD003DD80220F4800F048F867
:101870000E48FFF7D5FD0E4B186010BD0A4C5422E0
:10188000200000F03DF80B4B6365A365E36523661C
:101890006366A366E36623676367A367E367236200
:1018A000E361E5E753460000F01200204C330000EE
:1018B000D81C0020B918001007B5604601880A0A34
:1018C0000230DF2AFAD1C9B2820804D302884088E4
:1018D0000004104300E00068014A5050039007BD27
:1018E000F012002001480421014B1847301000205D
:1018F00041140010014B1B681847000030100020F5
:10190000014B5B68184700003010002010B500281C
:1019100000D110BD00F016F9FBE7C04610B5094A2A
:101920000300146884B0002C08D0012200910648FE
:10193000524203A9A047012004B010BD00F04CF9A9
:101940000020F9E7A01C00200D19001000BEFDE7E3
:1019500010B5FFF7FBFFC04670B5FFF7AFFD074DB1
:10196000074EB54209D20024013E761BB60808CDC9
:10197000984723000134B342F9D170BDE437001019
:10198000EC370010030010B5080011001B689847E1
:1019900010BDC046F0B5C64600B5437D07000C003B
:1019A0001600002B46D0002A17DD0B780A2B24D016
:1019B00000239846012E13D001252900635C0135D0
:1019C0000A2B26D0B542F8D1464509DCA419013CC2
:1019D00023780D3B5A4253413B7580BCB846F0BD5D
:1019E0004346E018A419F11A013C3B689847237854
:1019F0000D3B5A4253413B75EFE7037D002BD7D196
:101A000002210F483B689847012EDFD001239846FA
:101A1000D2E7631E5B5C0D2BD4D0884504DA4346C5
:101A2000C91AE0183B689847022105483B68A84658
:101A30009847C7E70368110020009847CDE7C046E4
:101A4000D8390010F0B54546DE464E465746E0B55B
:101A500083B091461C0080460D00FFF789FB0023F0
:101A6000304A12184B41002B02DA01222E4B52420F
:101A70002E4908008A4601F07FFE07006B1C03D147
:101A8000404601F011FE0500002C27D0284E294BBE
:101A90001C68002C18D04B46002B21D1264B9946B0
:101AA00002E02469002C0FD02368002BF9D04B46AC
:101AB0001B68002B01D09C42F3D120002A00414634
:101AC000B0472469002CEFD1002F26D1280003B0A5
:101AD000F0BCBB46B246A946A046F0BD174ED6E7BD
:101AE000154B99460A239B4602E02469002CEBD053
:101AF0002368002BF9D04B461B68002B01D0A34272
:101B0000F3D12A0041462000B0476B465A462000D8
:101B1000DA71D91D0122B047E7E7504601F0FCFD1C
:101B2000D4E7C04640420F00FFFFFF7F6010002057
:101B300095190010941800209C1800208519001099
:101B400000207047F0B5CE46474680B583B06B465F
:101B50000600DD1D2870FFF70BFB0023194A121841
:101B60004B41002B02DA0122174B52421749080061
:101B7000884601F001FE164B81461C68002C14D0EB
:101B8000144F02E02469002C0FD02368002BF9D0F9
:101B90003B68002B01D09C42F4D120000122290097
:101BA000FFF7F8FE2469002CEFD14B46002B05D13E
:101BB000300003B0C0BCB946B046F0BD404601F0AD
:101BC000ABFDF5E740420F00FFFFFF7F60100020F4
:101BD000941800209C18002070B5040001F064FDEA
:101BE00001230100050001222000FFF72BFF084B15
:101BF0001C68002C06D06368002B05D09847246928
:101C0000002CF8D1280070BD2469002CF3D1F9E72D
:101C10009418002010B5024800F004F810BDC0462A
:101C2000D01C002010B588B004000D2200216846A9
:101C3000FFF760FE0D22002104A8FFF75BFE4B2397
:101C40006A466846137004A90D2201F05DFD152156
:101C5000082220006944FFF753FE08B010BDC046BB
:101C6000F8B500F047F90C23194DFF22AB670520AA
:101C70001849FEF7ADFD184C402200212000FFF767
:101C800039FE4027002301262121144A667027834C
:101C9000A260136063545F31618445396354104A14
:101CA00010496360E2602787A1620B606362E262B1
:101CB00001F042FD80239B052E64EB6490230A4AC9
:101CC0000120EA508022094B5202DA64F8BDC04676
:101CD0000000115005050020A018002084001050BD
:101CE000000110508000105010D001000020115051
:101CF00010B501210520FEF72FFD10BD10B5002203
:101D00000021024800F016F910BDC046C01800209E
:101D1000044B1970002904D080219023024A8902C3
:101D2000D1507047E11C0020002011500B785B0659
:101D300002D14B78052B00D070478A78014B1A608E
:101D4000FAE7C04600001150F0B5C646C87800B5A5
:101D50008007830F1800012B60D08F780A794B79A8
:101D60007F213940FC091B024E001343334D3219C9
:101D70005201AA18977001276740577000275B052A
:101D80005B0DD7701383D076B846CA00012C32D0D1
:101D90002B4FBC468F016244BC46AC446746BA60D8
:101DA00047461760002932D0264AC900904662464D
:101DB000414451603F223F339343022837D02249A8
:101DC00037190A687F01D3180B602049EF19FA60B0
:101DD0008B422ED836197601AD19EB7E1C499B0635
:101DE0004A4013438022120613436A68136001209D
:101DF00080BCB846F0BD174FBC468F016244BC465C
:101E0000AC446746BA6247461760002908D10023F0
:101E100064012C196360104BE360E8E70020E7E7FA
:101E20000B4AC9009046624641445162C2E75B00DA
:101E3000C5E7FFF73DFBFA68CCE7C046A0180020D5
:101E40008400105004001050A41C0020FF0F1050FC
:101E500000001050800010500001105010B501F02B
:101E60006BFC10BD10B57F200C0020404000E40941
:101E7000110000191A00034B4001C01800F05AF875
:101E8000012010BDA01800207F23180000B50840D5
:101E900083B00B4204D14B424B41084A0133936655
:101EA0008022C9094000064B401840010021C0189B
:101EB000120101F071FC03B000BDC04600201150BA
:101EC000A01800207F22130010B50B400A4200D159
:101ED00010BDC9095B005B1804485B01C0180023F2
:101EE00000220349C37001F057FCF1E7A01800205D
:101EF000FFF7FFFF80220A4B520410B51A60094B0E
:101F000009491A6010000B689843FBD18022002118
:101F100052010648FFF7EEFC0922054B5A6710BD37
:101F200000E0004000F0004008C0004000001050F9
:101F300000001150002310B5C382013382828376E2
:101F40000161040001F0F0FB002804D080219023FF
:101F5000074A8902D150200001F0F6FB002802D088
:101F60000123237710BD200001F00EFCFAE7C046E4
:101F700000201150002070477047C0467047C0468F
:101F80000020704700207047002070477047C0460F
:101F90007047C0467047C0467047C046F0B5D64649
:101FA0004F464646C0B52D4B07009A461B780E009B
:101FB000FF2B4DD100293ED0002154222848FFF7A5
:101FC00099FC0022274C284B20001A70FEF784FD54
:101FD000264B1C60264C2000143CFEF78BFD200095
:101FE00001F042FB234B244D1C60244B002B04D0FA
:101FF000280000E000BF224B1860224A00249146CE
:102000001F4A2B7890460EE043461B6862019B18DE
:10201000002B10D05B68002B0DD0984701342B7833
:10202000E4B2A34209D3A342EED8E31A5B014B44C6
:102030005B68002BF1D100200BE0534631003800E3
:102040001F70FFF70DFE0028F5D03800FFF750FE97
:102050000120E0BCBA46B146A846F0BD5C100020A5
:10206000941400208C140020E21C0020E8140020AE
:1020700054100020EC140020E01C002000000000A0
:10208000F0130020843A0010F0B5DE4657464E4665
:102090004546E0B5CA4B8FB003931B78FF2B00D1A8
:1020A00046E1C84BC84E9B465F46C84B0BAC0293FB
:1020B000C74B019335686A69EFF3108172B61368F4
:1020C000002BFCD0BFF35F8FA9612800210001F035
:1020D000FBF86A69AB69BFF35F8F0021116083F37E
:1020E0001088002800D123E16378082BE2D89B00F8
:1020F000FB589F466368002BDCD0A0689847D9E75F
:102100007F222179B14D0A405300EB189846C80947
:10211000804440460123303005799D43057105799F
:1021200003339D430571002A00D108E14346A94AC3
:102130001B7D1278934200D3F8E0A74A5B01156833
:10214000ED18002D00D1F3E0A36862792078AD6925
:10215000A847AFE7A14A1378002B00D1E8E0137835
:10216000013BDBB213701378002BA3D10122974DF2
:1021700001212B78042013432B703423EA5C8A431B
:10218000EA54EA5C8243EA540133EA5C8A43EA5443
:10219000EA5C8243EA5423780020984600F030FC41
:1021A000602223791A40602A00D1F3E0402A00D14E
:1021B000F9E0DB06DB0E012B00D117E1022B00D189
:1021C000CCE0002B00D0E5E0202A00D10FE2002A6D
:1021D00000D0DFE06379092B00D9DBE0804A9B0067
:1021E000D3589F46794D2B78DB0700D462E7FFF781
:1021F000D3FE5FE7029BDB78DB0700D45AE7606819
:10220000FFF7BCFE56E7714D2B78DB0700D451E792
:1022100028780007C00FFFF7BDFE4BE723786C4A14
:10222000984693466B4B6C4A9946310092463A0069
:1022300046464F460025914688461B780EE0534699
:102240001B686A019B18002B00D17EE0DB68300020
:10225000984701353B78EDB2AB420CD39D42EED3AB
:10226000EB1A5B015B44DB683000984701353B7833
:10227000EDB2AB42F2D2554D542200212800FFF7B7
:1022800039FB1022FF21281DFFF734FB28002022F4
:10229000FF21143046464F46FFF72CFB00F0A6FB0B
:1022A0002379AB7006E723784B4A9846494B924610
:1022B00099463200BB46464600254F4690461B785D
:1022C0000DE053461B686A019B18002B41D0DB6868
:1022D0003000984701353B78EDB2AB420ED3AB42AC
:1022E000EFD8019AEB1A94465B016344DB68300037
:1022F000984701353B78EDB2AB42F0D2029D5422B3
:1023000000212800FFF7F6FA1022FF213548FFF7D9
:10231000F1FA28002022FF21143046465F46FFF7DD
:10232000E9FA00F063FBFFF733FEC3E6934213D0F4
:102330000FB0F0BCBB46B246A946A046F0BDA368AC
:102340006279207800F070FBB4E646464F461F4D98
:10235000A4E746465F46E4E71D4DF5E67023217A83
:102360000B4217D1C80983460F330B405B009946D7
:102370001848EB185B441B7D0078834261D21648F5
:102380005B01006882469A44002A00D14EE1534620
:10239000002B5ED120780021FFF776FD8021207888
:1023A000FFF772FD86E6104800F02AFB0121404647
:1023B0000CAAFFF7DFFD002800D07BE6EAE7C04665
:1023C0005C100020DC390010EC1400209414002074
:1023D000843A0010E01C0020F0130020E21C0020D2
:1023E000003A001098140020751F0010237A0F2B5C
:1023F000D0D8D54AEB181B791278934234D3C9D17F
:10240000D24D686900F0FCFA012140466B690CAAC4
:102410009847002800D04DE66022150023791D4022
:102420001A42B7D163790A3B012BB3D800F0E8FA1E
:1024300063790A2B00D17DE140460CA900F06CFACB
:1024400038E6834200D0ECE0C04B9A46002A00D127
:10245000ECE05346586900F0D3FA53460121404658
:102460005B690CAA9847A6E7B94A5B011568ED18A5
:10247000002DC6D18EE7A3799A466B789A45DBD0BA
:102480006B78002B00D028E153466B70002B00D1F5
:1024900020E150460138C0B2FEF73EF8002800D1D6
:1024A00071E14378022B00D06DE10122C179A94688
:1024B0008B11491113400A40302112015B01134373
:1024C0002A788A4313432B7009239B4683445D4635
:1024D000B346C37882781B021343C31806939A4B02
:1024E00004970593994B0893994B9A46994B0993F6
:1024F000069BAB4200D849E16B7801220B2B03D13C
:102500002B78EA78ED186B78042B00D038E1069B25
:1025100000265B1B9BB20793059B17001B7818E0F6
:1025200053461B6872019B18002B00D128E129003B
:1025300040461B69079A9847082803D9079B83429E
:1025400000D30BE1059B01361B78F6B2B34200D2F3
:1025500016E1B342E4D8089AF31A94465B01634447
:10256000E5E76B780AAA02321370404601230CA9F2
:1025700000F0E8F99EE5E3881A0AD8B20F2A00D9DC
:1025800008E775499300CB589F460CA800F03EFA27
:102590004046A179FFF7B2FB02222B7813432B7040
:1025A00088E5E388012B00D0F4E608222B7840462A
:1025B00093430CA92B7000F0AFF97BE5022029783A
:1025C0000AAB9A1C8B068908DB0F01400B43138072
:1025D000404602230CA900F0B5F96BE5E388012B16
:1025E00000D0D7E608222B7813432B7024E7237AF8
:1025F0000F2B00D9CEE6544AEB181B791278934280
:1026000028D2534A5B011568ED18002D00D1C1E6B0
:10261000686900F0F5F9012140466B690CAA9847FA
:10262000C9E6002A00D0B5E600239A466279022066
:10263000130004928343012B11D0002A00D0A9E695
:102640002B004B445B4430331B790AAA9B07DB0FFA
:102650000232BCE7934200D09CE63C4DD8E7E388C9
:10266000002B12D1039B1878049B012B23D0FFF77A
:102670000BFC4B460221EB185B4430331A790A43BA
:1026800001211A711A790A431A715346002B00D19D
:1026900010E5586900F0B4F9534601215B690CAAB2
:1026A00040469847002000F0ABF93523EB5CDB0790
:1026B00000D5FFE4C0E6FFF705FC4B460221EB180E
:1026C0005B4430331A798A431A711A7904998A4320
:1026D0001A71DAE7FFF75CFCAEE600214046FFF72F
:1026E00017FB4046FFF7BAFB00229346174AAB7828
:1026F0000592174A049306922A00134B5D469946A9
:1027000093461B780EE0069B6A011B689B18002B02
:1027100055D0DB68404698474B4601351B78EDB2F3
:10272000AB4238D39D42EED3059AEB1A94465B0137
:102730006344EEE70AAB9A1C404601230CA91570CE
:1027400000F000F9B6E4C046E01C0020843A001016
:10275000F0130020A8140020283A00103A000700C7
:10276000002A3CD0AB789A18D2B204E00133DBB235
:102770000E719A4233D04946C9180879FF28F5D01E
:102780005E464D46049F00236B7003E65E46049F41
:10279000FFF7FCFB50E65D46542200212800FFF7BE
:1027A000A9F81022FF21281DFFF7A4F828002022F5
:1027B000FF211430FFF79EF8049BAB7064E65D4682
:1027C000FAE7FFF7DDFB021E00D1E3E5D37891784D
:1027D0001B020B4340460CA900F0B4F8EBE53300B4
:1027E00029003A00099800F079FB059BED191B7848
:1027F000B34200D37CE6C3E7FFF7C4FB021E00D15F
:10280000C8E5404613780CA900F09CF8D3E521896F
:10281000FDF786FE021EF4D1BCE5022A0FD0FFF7B9
:10282000B3FB021ED2D1B5E5FDF772FE021E00D148
:10283000B0E5122340460CA900F084F8BBE5FDF793
:102840006BFE021EC2D1A5E5702270B58B780C001C
:102850001A4201D0002070BD064B20001D78064BA7
:10286000997800F0FDFA0028F4D021002800FFF745
:102870006BFAF0E75C100020941400200B007F201E
:1028800010B51840DB0934334000044AC018044B2B
:102890001168C01800F0A0FA10BDC046E81400206E
:1028A000941400200B007F2010B51840DB0934334E
:1028B0004000044AC018044B1168C01800F0B4FA74
:1028C00010BDC046E81400209414002070B57F2489
:1028D0000F480C4064000419CD0964193034207984
:1028E000C00701D5002070BD012625790948354370
:1028F00000782571FFF7B6FA0028F4D10122237978
:10290000934323712379033293432371EAE7C0464B
:10291000941400205C10002070B5094C06000822B9
:1029200020000D00FEF7ECFF00238021E360A36090
:102930002B783000994300220023FFF7C7FF70BDBA
:1029400034140020F8B5CE4647469046254E80B553
:102950008146082230000D001F00FEF7D1FF4346DC
:10296000B3600023F381EC79AB7924021C43231C70
:10297000BC4200D93B1C9FB2B381002C0DD0002F6C
:1029800017D04246002A2BD0402F1BD89FB2337855
:102990007F2B1CD80021144A0FE080212B780022C5
:1029A000994348460023FFF791FFC0BCB946B046A3
:1029B000F8BD7F230022317899433B004846FFF75A
:1029C00085FFF2E740239FB233787F2BE2D9064C94
:1029D0003A0041462000FEF793FF80212200ECE7F9
:1029E0000020E2E734140020F413002010B5142274
:1029F00000210248FEF77EFF10BDC04634140020BF
:102A0000014B18617047C0463414002010B5054CC6
:102A1000010008222000FEF773FF0023A360E3609B
:102A200010BDC0463414002070B5384C1D0023780A
:102A30000600DA09C9098A4210D00020002D00D012
:102A400070BD21003000FFF771F92369002B03D01E
:102A500022000321300098470120F1E77F2B06D8A0
:102A6000A068002834D02A002949FEF749FFE289EE
:102A7000A1685219E38892B24919E281A160934298
:102A800014D03F2D12D9A389981A051C80B2402872
:102A90002AD82078ADB27F2828D800219A4232D097
:102AA0001B4A2B003000FFF711FFC9E72369002BF9
:102AB00005D0220002213000984700280AD080214A
:102AC00023780022994330000023FFF7FFFEB7E789
:102AD0000020B5E700213000FFF7D6F93000802153
:102AE000FFF7D2F90120ABE74025D2E79A4207D0A1
:102AF000074C2A002000FEF703FF80212200D0E7C8
:102B000080210022CDE70022CBE7C046341400200C
:102B1000F4130020030010B50020002B02D102485E
:102B200000F0A6FB10BDC046A0160020030010B5A3
:102B30000020002B06D1044813000A0001000020E9
:102B400000F0F2FA10BDC0469816002070B5124C85
:102B500084B0CC2200212000FEF7CCFE23004025CB
:102B600020000E4E8C330296009300220023002199
:102B700003950195683000F0CBF94036201D2834CC
:102B8000002301220021039502960195009400F094
:102B9000BFF904B070BDC04630160020B01500204B
:102BA00010B5054C200000F0E9F92000643800F071
:102BB000E5F9012010BDC0469816002070B5074CFD
:102BC000002520007030257000F04EFD20000C30F4
:102BD00000F04AFD69236571E55470BD3016002090
:102BE000F8B557464546DE464E46E0B54B79804639
:102BF0000F00FF2B57D13E4B994669234946CB5CCA
:102C0000002B50D14E79002E4DD1BB783C780B7003
:102C10003B793C19002B43D070234B449A460C233C
:102C20004B449B46A51803E0AC4239D22378E41804
:102C30006378052BF8D1AC4232D221004046FFF731
:102C400003FE00282FD0A3780136F6B2DB09012B52
:102C500030D0504600F008FD69234946A278022092
:102C6000CA54637922791B021343224A5B059446B6
:102C70005B0D634468215A4253414A46525C5B00F3
:102C8000824313434A46535451464046083900F0A4
:102C9000DFF9002807D02378E4183B79B342C7D87E
:102CA000E01B80B200E00020F0BCBB46B246A94663
:102CB000A046F8BD584600F0D7FC5A46A3780C3A17
:102CC0005371637921791B020B430A495B058C46DA
:102CD0005B0D634459424B41022011795B008143F3
:102CE0000B43594600200839137100F07DF9D2E7F3
:102CF0003016002000FEFFFFF8B5692506001D48CC
:102D00001F00455D8D4215D043798B4201D00020D4
:102D1000F8BD194B002B04D039040020090C00E049
:102D200000BF164C3000210000F05EF9002819D0D9
:102D30000120EDE77423C35A002B0DD1104B002B5B
:102D400004D000200F49BAB2FDF7C4FA30000E4992
:102D500000F07EF90120DBE7C16EBAB2703000F0FE
:102D6000C7FBEBE73A002100300000F009F9012031
:102D7000CEE7C046301600200000000034160020C8
:102D8000D5020010B01500209816002000B50300F1
:102D900083B0002910D00020012B07D80A78002A20
:102DA00004D00C48C2540120012A01D003B000BD58
:102DB0001800FFF7F3F8F9E701236A46002001A99C
:102DC0009380FFF7EBF80028F0D00122014B1A7036
:102DD000ECE7C04688140020037870B5DB070400D8
:102DE0000E00DD0F002B17D103785B0701D52800FB
:102DF00070BD01213000494200F0B6FC2378DB07AA
:102E0000DD0F002B0AD123785B0708D40422237836
:102E100001251343237002E00025E8E70025300078
:102E200000F07AFCE3E7C04670B50C000121060013
:102E30004942200000F098FC33785B07DD0F002B3F
:102E400004DB200000F068FC280070BD3378DB074D
:102E500004D40422337893433370F2E70025F0E77B
:102E6000437902791B021343C2785B0592075B0D1D
:102E7000920F022A1DD0032A0CD00020012A08D16B
:102E800002394A425141124A9446614499424041B2
:102E9000C0B2704702394A1E91410E4A4942114060
:102EA0008022D20094460020614499424041C0B241
:102EB000EFE7022905D0002040229A424041C0B2EB
:102EC000E7E7054A981843425841C0B2E1E7C046D7
:102ED000FF03000040FCFFFF00FEFFFF8A1870B5F3
:102EE000914207D27F264C78052C04D00C78091922
:102EF0008A42F8D870BD34008D782C4064000419E3
:102F0000ED0963550C7809198A42ECD8F2E7C046FE
:102F1000F0B5C64600B582B0150008AA40CA040044
:102F200017886A46928D012090460A002178024057
:102F300081432000114321703A00009331000123A6
:102F4000083000F05FF9002E01D0002F08D10A9B55
:102F5000012063604346638002B080BCB846F0BD88
:102F600026001C363000FDF7B7FD0023002D01D0F0
:102F7000330000266361A661E9E7C046012070477F
:102F8000F8B502240B7807001C4063425C41144BE7
:102F900064421C40134B08009C4608300D0016008C
:102FA000644400F065F9002807D1002E05D03442B2
:102FB00003D101242B781C4201D00020F8BD380039
:102FC0006978FFF75BFC0028F7D02B781C42F4D11E
:102FD0000023002238006978FFF778FCEEE7C0464E
:102FE00040FEFFFFFF010000F8B50D0008350600A8
:102FF00028000C0000F03CF9002803D001272378BA
:103000001F4201D00020F8BD30006178FFF736FC88
:103010000028F7D028006288616800F0A3F92378BF
:1030200005001F4000280BD0002FEBD10300626881
:1030300030006178FFF74AFC0028E3D02800E2E77F
:10304000002FDFD130006178FFF72CFCDAE7C046B3
:10305000F8B5CE46474680B58A8906000C000B7845
:10306000002A07D101251D4240D00020C0BCB9462E
:10307000B046F8BD9B0733D42A4B4025994627001C
:103080000837380000F00AF98542EED8012223788B
:1030900090461A42E9D130006178FFF7EFFB002833
:1030A000E3D0380000F0FAF8424623781A4085420F
:1030B00031D8002AD9D14A46638802401D1C934268
:1030C00000D9151CADB200226178002D00D06268D5
:1030D0002B003000FFF7FAFB0028C6D02800C5E718
:1030E000FE2380251B029946AD00C8E74978FFF70B
:1030F000C5FB0028B9D023781D42B6D163880022D1
:103100006178002B00D062683000FFF7DFFB0028F9
:10311000ABD06088AAE7002AA7D130006178FFF71A
:10312000C1FBA2E7C0FF0000F0B50C00D6464F4639
:103130004646C0B527000837110006009AB238008D
:1031400000F010F9A28905002378002A08D1012790
:103150001F423DD02800E0BCBA46B146A846F0BDAB
:103160009B072ED4264B9A4640239846380000F001
:1031700095F84045EED30122237891461A42E9D1D1
:1031800030006178FFF77AFB0028E3D0380000F0C8
:1031900085F84A4623781A40804529D8002AD9D193
:1031A000534661881840031C884200D90B1C9BB20F
:1031B00000226178002B00D062683000FFF786FBA8
:1031C000C8E7FE231B029A4680239B009846CDE762
:1031D00030006178FFF752FB0028BBD023781F42F4
:1031E000B8D1638800226178002BE6D06268E4E7FA
:1031F000002AAFD130006178FFF754FBAAE7C04640
:10320000C0FF0000F0B5C64600B504006846057E64
:103210008020884617001E000002824226D8E068FF
:10322000002803D00121494200F09EFA20690028BD
:1032300003D00121494200F097FA4346236073040A
:103240005B0CED031D430023E0686381A780E580EC
:103250002381002801D000F05FFA2069002801D006
:1032600000F05AFA012080BCB846F0BD0020FAE711
:1032700010B5048941898288A3B288B28C4207D3F1
:103280001B1A9BB2101C9A4200D9181C80B210BDA8
:103290005100091A5B189BB2F4E7C04610B50489C7
:1032A00041898288A3B288B28C4207D31B1A9BB291
:1032B00000209A4201D9D21A90B210BD5100091AC9
:1032C0005B189BB2F4E7C04670B5040000690E00BD
:1032D000002803D00121494200F046FA258960897F
:1032E000A288A9B283B2854232D3CD1AADB2002DE5
:1032F00028D0AA4208D291422FD3891A8BB2638177
:103300009A4203D89B1A9BB29A42FBD9E288216861
:103310005204520C53433000C918FEF7F1FA638986
:103320000125591C89B2A2888B420DD90021520077
:10333000891A89B220696181002801D000F0ECF976
:10334000280070BD618989B252009142F2DBEFE73B
:103350005500ED1A4D19ADB2C9E789188BB26381DA
:10336000CEE7C046F0B546464F46D646C0B5060045
:10337000006989469046002803D00121494200F0A7
:10338000F3F931897289B5888BB294B2914254D3E2
:103390001F1BBFB2002F4AD0BD4205D2AB4251D253
:1033A0005B199CB22F0074814346B8453DD89FB24B
:1033B000A54203D8641BA4B2A542FBD9F2883168A8
:1033C0005204520C904662432B1B9BB28918424612
:1033D0009F4225D953439BB21A0048469A46FEF7AE
:1033E0008FFA434648467D1B64195C43316850445C
:1033F000A2B2FEF785FA7189B588CB199BB26A0033
:10340000994216D99B1A9BB230697381002801D06A
:1034100000F082F93800E0BCBA46B146A846F0BDDB
:1034200048467A43FEF76CFAE5E73B1CBFE7738931
:103430009BB26A009342E7DBE4E76F003F1BDF19B2
:10344000BFB2A7E75B1B9CB2ACE7C046F8B504006F
:10345000C0680E00002803D00121494200F084F921
:10346000258920896189A288ADB283B28FB2884252
:1034700029D3DB1B9BB29A4209D8E779FF0906D111
:10348000E068002801D000F047F93800F8BD2B00B3
:1034900095421DD39B1A9BB29342FBD2E2882068CF
:1034A0005204520C53433100C018FEF729FA6B1C2A
:1034B0009BB2A2889D4217D9002352009B1A9BB24F
:1034C00001272381DCE75100C91B5B189BB2D2E7BF
:1034D000E28820685204520C53433100C018FEF7B2
:1034E0000FFA0135A288ABB252009342E8DBE5E760
:1034F000F0B54E465746DE464546E0B589460600DD
:10350000170083B0002A67D0C068002803D00121CB
:10351000494200F029F93389F2799BB298467389C0
:10352000B5889BB2D20940D198455ED26A00D31AC1
:1035300043449BB2AB425DD2EB1A1A1C9BB2BB4216
:1035400000D93A1C97B27B1B9BB20193F3885B04B2
:103550005B0C9A464346DB199BB29B464446A84502
:1035600003D3641BA4B2AC42FBD25346634330681E
:103570002D1BADB2C018BD424BD3524649467A43CB
:10358000FEF7BEF9B3885B00D84501D89B4503DB45
:103590005A46D31A9BB29B465B463D003381F06886
:1035A00000281AD000F0B8F817E0F2885204520C44
:1035B0009246AF4220D298454DD34246D21A92B29B
:1035C0006900781B80B2D21901908A4233DA4346EF
:1035D000FB189BB29B46C1E70025280003B0F0BC56
:1035E000BB46B246A946A046F0BD4246D31A9BB29E
:1035F000AB42A1D30025D2E7002DD0D07F1B57438B
:1036000098465A19002392B2B94493462F00019369
:10361000A4E753465D43ADB22A004946FEF770F970
:10362000019B2900E21853465A43306892B249443C
:10363000FEF766F9A6E75A1992B29346D21B92B2E8
:10364000904693420CD94346591A8BB29846FB18C0
:103650009BB29B4682E76900CA1A424492B2B0E725
:10366000914200DD7AE7EEE710B50400C06800285B
:1036700003D00121494200F077F82069002803D0E7
:103680000121494200F070F80023E0686381238142
:10369000002801D000F040F82069002801D000F097
:1036A0003BF8012010BDC04610B583070AD00300C7
:1036B000032102E001330B4205D01A78002AF9D128
:1036C000181A10BD030019680C4A0D4C8A188A4359
:1036D00022420FD15968094A04338A188A43224288
:1036E00008D15968054A04338A188A432242F1D026
:1036F00000E001331A78002AFBD1E1E7FFFEFEFE6D
:1037000080808080F8B5C04601B40248844601BC80
:10371000604700BFC102002001B40248844601BCDA
:10372000604700BFE501002001B40248844601BCA7
:10373000604700BFD90B002001B40248844601BC99
:10374000604700BFFD03002001B40248844601BC6D
:10375000604700BF010C002001B40248844601BC50
:10376000604700BF190F002001B40248844601BC25
:10377000604700BF5901002001B40248844601BCE3
:10378000604700BFC100002001B40248844601BC6C
:10379000604700BF910C002001B40248844601BC80
:1037A000604700BF410C0020E51400101115001007
:1037B000F5160010E51800105117001055180010EC
:1037C0001D1600102D1500104D150010611500106C
:1037D000890A001069150010410E0010AD14001088
:0C37E00035070010151C0010B10200108D
:1037EC0054505345494920555342204465766963EA
:1037FC00650000005069636F205270203230343005
:10380C002056656E646F72204465766963650000AE
:10381C00313233343536000056656E646F72204990
:10382C006E74657266616365000000000A2A2A2ABC
:10383C002050414E4943202A2A2A0A000A0000003F
:10384C004E6F207370696E6C6F636B732061726561
:10385C0020617661696C61626C650000486172641C
:10386C007761726520616C61726D20256420616CDA
:10387C00726561647920636C61696D656400000038
:10388C0048617264206173736572740052656C6573
:10389C0061736500626F6F74325F773235713038E7
:1038AC0030000000302E3100322E322E300000005D
:1038BC007069636F000000007069636F5F757362FD
:1038CC005F646576696365004A616E20313620322B
:1038DC0030323600556E68616E646C6564204952F6
:1038EC005120307825780A00657020253032582018
:1038FC0077617320616C72656164792061766169AE
:10390C006C61626C6500000043616E277420636F0C
:10391C006E74696E75652078666572206F6E2069AD
:10392C006E616374697665206570202530325800AD
:10393C004C454400090400000902200001010080EC
:10394C00320904000002FF000004070501024000D8
:10395C000007058102400000120100020000004037
:10396C00FECA014000010102030100000600525092
:10397C00D3F075429838001006005250E182887FCF
:10398C00A0380010060052503ABCA911B0380010F3
:10399C0006005250ABB36053B438001006005250BE
:1039AC00BBFF3CB6BC38001006005250861C03020C
:1039BC00C4380010060052505422A29DD438001076
:1039CC0005005250DE65F4687C4A00100D0A0000B8
:1039DC00B42000101C220010A6220010F4210010AC
:1039EC0006220010E42100105421001000210010C8
:1039FC00F4200010BC250010A22500109423001008
:103A0C00DC250010942300108A2500107625001068
:103A1C0094230010622500107624001094230010CB
:103A2C00282800101A2800100E28001094230010CB
:103A3C0094230010F82700101A280010942300106B
:103A4C00942300109423001094230010942300104E
:103A5C009423001094230010C22700105E0D002048
:103A6C005E0D0020A80D0020C80D0020060E0020C1
:103A7C00180E0020540D0020000000004D2B0010EB
:103A8C00A12B0010BD2B0010E12B0010751F001096
:103A9C00F92C001000000000090052500000000238
:043AAC003C39001091
:103AB0007839001084390010903900109C390010BA
:103AC000A8390010B4390010C0390010CC390010EA
:043AD000A43A001004
:103AD400F0B5C646150000B504001E000268EFF3F9
:103AE400108172B61368002BFCD0BFF35F8F0423E0
:103AF400E3562268002B2BDBBFF35F8F002010609E
:103B040081F31088D02212061278002752B2904610
:103B14009A420ED1002080BCB846F0BDBFF35F8F3F
:103B2400176081F310882800310000F001FF00289D
:103B3400F0D12268EFF3108172B61368002BFCD029
:103B4400BFF35F8F237922687F2BE7D9434602E0D6
:103B5400D0231B061B682371BFF35F8F0023136000
:103B640081F310880120D6E7F0B5C64600B50D00F4
:103B7400040000F0E5FEFA2206000F0000232800EE
:103B84000021920000F0F4FE36184F41002F02DAB3
:103B94000126174F7642D0231B061B680025984642
:103BA4000AE0BFF35F8F156081F31088300039009D
:103BB40000F0BEFE002818D12268EFF3108172B61F
:103BC4001368002BFCD0BFF35F8F237922687F2B0F
:103BD400E7D943462371BFF35F8F0023136081F35A
:103BE4001088012080BCB846F0BD0020FAE7C0462A
:103BF400FFFFFF7F0268EFF3108172B61368002B9A
:103C0400FCD0BFF35F8FFF2303710368BFF35F8FA3
:103C140000221A6081F3108840BF704710B5084C29
:103C24002378002B0AD18023064807495B051A68CC
:103C3400C25004338B42FAD10123237010BDC04615
:103C4400E31C0020001700100001001010B5014B08
:103C5400984710BD01170020064B5A6802609A6805
:103C64004260DA6882601A69C2605A6902619B69BB
:103C740043617047000002400268064B5A60426884
:103C84009A608268DA60C2681A6102695A6142699C
:103C94009A61704700000240034B1A68C0239B00DE
:103CA4009343024A136070470C8001400C9001401A
:103CB400054B1A6880239B005340C0229200134096
:103CC400024A13607047C0460C8001400C900140CA
:103CD4000023F0B5DE4657464E4645469A46E0B5C3
:103CE40089B001900E00988A45491B8B14009847AF
:103CF400534681464349988A1B8B98475346424909
:103D04000500988A1B8B98478046FFF787FF02A817
:103D1400FFF7A2FFC847A847FFF7CAFF251E22D016
:103D24000823C0219C460220490562468B6A1A403A
:103D340018423FD0631B002D2FD1002A11D1002C33
:103D440011D0C0235B059B4602239A46063399464D
:103D54005B464A4657469B6A1A401F4242D0002A95
:103D6400F6D0002C30D1FFF797FFC047FFF76EFF66
:103D740002A8FFF781FF09B0F0BCBB46B246A946D2
:103D8400A046F0BD002C2FD1C0225205926A914664
:103D940008224F463A40BF072DD50D2B1BD9002AC8
:103DA400F0D1C0225205926A914608224F463A4009
:103DB400BF07F2D4002A04D12B002343002BB4D133
:103DC400D1E72B00002CF9D00B6E013C337023009B
:103DD40001362B43F2E7019F013D3B7801370B6627
:103DE4000197E7E70025E5E7C0235B051B6E013C6F
:103DF4003370013699E72B00002ADFD1DCE7C04697
:103E04004946000045580000464300000022154B77
:103E140010B59A60DA601A615A619A61DA611A62BD
:103E24005A629A62DA621A635A639A63DA631A64A8
:103E34005A649A64DA641A655A659A65DA651A6688
:103E44005A669A66DA661A675A679A67DA67F032C8
:103E540092000021044800F083FD044B044A1A60D8
:103E640010BDC04600001050E0180020A41C002023
:103E740080011050F0B54E464546DE465746E0B543
:103E8400214B00249E6D012585B0002E22D01F4BAE
:103E94009A46012399461E4B984601E0202C19D0DE
:103EA4002A00230001342F003240E4B26D00002ABE
:103EB400F4D0524697654A465B085B0022409B1843
:103EC4005B01434418009B4600F01EFC002808D107
:103ED400BE43E3D105B0F0BCBB46B246A946A046FA
:103EE400F0BD5B46E0219A78DB8A01A88360002359
:103EF400C900018001210271437100F025FC58467C
:103F040000F0A0FBE4E7C04600001150003011505F
:103F1400A01800209823F0B5C646C84A00B5D55865
:103F240080232E009B02102484B01E401D4274D0B6
:103F3400C34BC44C9A6AC44B00261A603B23E35C0F
:103F4400022B00D14FE17B23E35C022B00D1F3E091
:103F5400BB23E35C022B00D1FAE0FB23E35C022BDE
:103F640000D101E13C23FF33E35C022B00D12DE1BE
:103F74007C23FF33E35C022B00D10EE1BC23FF332F
:103F8400E35C022B00D13FE1FC23FF33E35C022B13
:103F940000D1F5E0AD4BE35C022B00D174E1AC4BF6
:103FA400E35C022B00D105E1AA4BE35C022B00D1B8
:103FB40075E1A94BE35C022B00D132E1A74BE35C32
:103FC400022B00D1A0E1A64BE35C022B00D171E1EE
:103FD400A44BE35C022B00D1A1E1A34BE35C022BD5
:103FE40000D17FE1002E08D1A04B1B78002B04D117
:103FF40080219F4A90338902D150C02269468F4B59
:1040040092009B6C80265B058A805B0D012101A8D0
:10401400029300F099FB974CB602EB0600D57FE0C3
:1040240080235B021D4231D01E43012302249846A3
:10403400844FBB7E002B14D000F0AAFC012800D9C9
:1040440072E0C02200213800920100F001FB380028
:1040540000F0F8FA00F09CFC012802D9844B5C665D
:104064001C664346FB702037012C22D1C0236A46CC
:10407400DB009380804A02AB03CA03C3012101A879
:1040840000F062FB80227A4B92021A6580235B0166
:104094001D4210D18023DB011D4223D180231B024A
:1040A4001D422FD1AE4200D0C0E104B080BCB8465E
:1040B400F0BD0124BDE700241E43604B1C60FFF7E4
:1040C400A5FE80236A465B0093801472012101A837
:1040D40000F03AFB8022664B12031A658023DB0151
:1040E4001D42DBD01E4380236A46DB0093800121FE
:1040F40001A800F029FB10225D4B1A6580231B02E6
:104104001D42CFD01E43A0236A46DB0093800121C9
:1041140001A800F019FB8022554B12011A65C1E772
:10412400FFF7A8FE26007BE7544B444A1C66536EF7
:104134002340A342FBD184E77833E75C002F00D10E
:1041440006E70233E25C002A00D00DE13E00FFE600
:10415400B833E75C002F00D1FFE60233E25C002AAB
:1041640000D0F9E03E00F8E6F833E75C002F00D118
:10417400F8E60233E25C002A00D041E13E00F1E6B9
:10418400F933FF33E75C002F00D103E70233E25C2D
:10419400002A00D02BE13E00FCE67933FF33E75CD4
:1041A400002F00D1EAE60233E25C002A00D015E1D8
:1041B4003E00E3E6324BE75C002F00D1F4E6023325
:1041C400E25C002A00D001E13E00EDE63933FF3322
:1041D400E75C002F00D1CBE60233E25C002A00D07A
:1041E400EBE03E00C4E63833E65C002E00D1AAE6DC
:1041F4000233E25C002A00D1A5E620000022203030
:10420400E25400F04DFA9EE6B933FF33E75C002F29
:1042140000D1B9E60233E25C002A00D0C4E03E00DB
:10422400B2E6184BE75C002F00D1C7E60233E25C2C
:10423400002A00D0B0E03E00C0E6C04600001150A5
:1042440000400540A0180020981800203B02000000
:104254007B020000BB020000FB0200003B030000E5
:104264007B030000BB030000FB030000E11C0020F3
:1042740000301150100002000000105000201150B6
:104284007A020000FA0200006B4BE75C002F00D1B9
:1042940085E60233E25C002A76D13E007FE6674B76
:1042A400E75C002F00D184E60233E25C002A63D18C
:1042B4003E007EE6624BE75C002F00D188E60233C5
:1042C400E25C002A00D0A3E05E4BE35C022B30D119
:1042D4005D4BE35C002B27D15C4BE35C022B00D0ED
:1042E4008BE63E005A4BE35C002B00D17AE6FF23B9
:1042F4009B00E25C002A00D17FE60022E2541C3BD2
:10430400E01800F0CDF978E6524BE75C002F00D1BD
:1043140059E60233E25C002A16D13E0053E64A4BCA
:10432400E35C002B00D158E6EF239B00E25C002AFB
:1043340075D1464BE35C022B00D05EE6444BE35C54
:10434400002B00D159E6D2E70022E2541C3BE018CE
:1043540000F0A6F93E0036E620000022A030E25428
:104364003E0000F09DF9F8E5200000226030E254A0
:104374003E0000F095F9EBE50022E2541C3BE01806
:1043840000F08EF93E0014E60022E2541C3BE018D3
:1043940000F086F93E0002E60022E2541C3BE018DD
:1043A40000F07EF93E0009E620000022A130FF3033
:1043B400E2543E0000F074F9E6E5200000222130CA
:1043C400FF30E2543E0000F06BF9D1E50022E254E4
:1043D4001C3BE01800F064F93E00E5E520000022F3
:1043E4006130FF30E2543E0000F05AF9C6E5200087
:1043F4000022E130FF30E2543E0000F051F9C9E5FB
:1044040020000022E030E2543E0000F049F9A9E522
:104414000022E2541C3BE01800F042F954E7002269
:10442400E2541C3BE01800F03BF982E731000A48F3
:10443400694000F0B5FAC0463A020000BA02000032
:104444007A030000BB030000BA030000FB03000072
:10445400FA0300003A030000E0380010F0B5C64645
:1044640000B50200838A008B8C46011C984200D957
:10447400191CD47880252000461EB04189B2ED0075
:104484000D434003284301256C405B1AD4705478D3
:104494009BB29382002C31D16446D568A4014E1E90
:1044A4002D19B0461469002923D0062E32D92B00C9
:1044B40023439B072ED1631CEB1A022B2AD900231A
:1044C4008F08BF00E658EE5004339F42FAD14346AA
:1044D400ED19DB1BE419B94209D026782E70002BA4
:1044E40005D066786E70012B01D0A378AB70146987
:1044F400938A64181461802212021043002B02D1A3
:104504008023DB0118436346002B00D0000480BCE9
:10451400B846F0BD0023E65CEE5401339942FAD16B
:10452400E5E7C0468368F0B51A680400002900D0A6
:10453400120C63789205900D002B08D1E38AC318FE
:10454400E382238B834201D90023A382F0BDE36875
:10455400890125695E18471E002822D0062F26D916
:1045640001315B18EB1A022B21D92B0033439B0733
:104574001DD10023120E9200F158E95004339A42DF
:10458400FAD1BF1AAD18B618904209D032782A7001
:10459400002F05D072786A70012F01D0B278AA700A
:1045A4002569E38A2D18C318E3822561C9E700222F
:1045B400B35CAB5401329042FAD12569F1E7C046AD
:1045C40010B50400836800211B68FFF7ABFF636824
:1045D4001B685B0002D5238B834200D010BD0121F0
:1045E4002000FFF79FFFF9E7084A0300126C002040
:1045F400920703D49A78D209012A00D07047D87E52
:10460400023843425841C0B2F8E7C0460000115096
:1046140010B5FFF7E9FF00280CD00749074B8C467B
:10462400074A9B6A126863449B1A0020C6229A4276
:104634004041C0B210BDC046E0FCFFFF0040054051
:104644009818002000238376436103617047C046B5
:1046540010B58368002901D01C682140002A12D0BB
:104664008024E400114322420DD01A6822420CD166
:10467400084A0A401A60084A126C920703D40C23B1
:10468400033BFDD28368196010BD8178034800F0B4
:1046940087F9C046FFFBFFFF00001150F4380010FB
:1046A400436870B50021802504001E68FFF7D6FE1C
:1046B400124B6D011A6C0543A37892070ED55B0665
:1046C4000ED00F4B1E4080239B05334362680021AC
:1046D400136020002A00FFF7BBFF70BDDB09F0D098
:1046E400A38A002BEDD001212000FFF7B7FEA02301
:1046F400044ADB05324005431343E7E70000115049
:10470400FFFFFFAFFFFFFFDF70B5857E0400002DC4
:1047140014D0FFF755FFA38A002B01D1280070BDE8
:104724002000FFF775FF002803D00123002523771D
:10473400F4E72000FFF7B4FF0025EFE78178014894
:1047440000F02EF914390010F0B5CE46474680B576
:10475400437805000E0085B0062B08D86B4A9B00F1
:10476400D3589F466A4A13780133DBB21370694BFE
:104774001C686269EFF3108172B61368002BFCD0D9
:10478400BFF35F8FA1612000290000F0F9F862698E
:10479400A369BFF35F8F0021116083F310880028A1
:1047A40004D105B0C0BCB946B046F0BD320069784A
:1047B400287800F0CDF8F4E70121574B1A788A43A2
:1047C4001A701A7801318A431A7000225A701A78C2
:1047D40002318A431A70CAE7504B514F9946514BE4
:1047E400002498463A7810E043461B6861015B1840
:1047F400002B06D0DB69002B03D069682878984722
:104804003A780134E4B2944217D8A242ECD8A31AFD
:104814005B014B44EEE7404B1A78D207C1D5042123
:104824001A780A431A70A2E73B4B1A78D207B8D514
:1048340004211A788A431A7099E7374F3B785B074B
:104844002BD504223B78002193433B706B46063200
:10485400981D00F085F82B7801AC23700523637054
:104864002C4B1B6898465A69EFF3108172B6136893
:10487400002BFCD0BFF35F8F434640469961210073
:1048840000F07EF843465A699B69BFF35F8F0021AD
:10489400116083F31088002831D1FB78DB0700D442
:1048A4007FE76B460A220021981D00F059F82B7807
:1048B40001AC2370032363706B686360154B1D6840
:1048C4006A69EFF3108172B61368002BFCD0BFF352
:1048D4005F8FA9612800210000F052F86A69AB6972
:1048E400BFF35F8F0021116083F31088002800D18B
:1048F40057E732006178207800F02AF851E7320057
:104904006178207800F024F8C7E7C046683A0010C0
:10491400E21C0020EC14002094140020843A0010BF
:10492400E01C0020F01300207047C0460000000087
:1049340001B40248844601BC604700BF4110001026
:1049440001B40248844601BC604700BF71110010E5
:1049540001B40248844601BC604700BF791F0010BF
:1049640001B40248844601BC604700BFF51800103A
:1049740001B40248844601BC604700BF21180010FE
:1049840001B40248844601BC604700BF4D340010A6
:1049940001B40248844601BC604700BFD50500103D
:1049A40001B40248844601BC604700BFE105001021
:1049B40040390010EC370010003800101C3800108B
:1049C4002438001010000000000000000000010066
:1049D40000000000000000000000020000000000D1
:1049E40000000000000003000000000000000000C0
:1049F4000000FF000000000001B5486801318E4648
:104A04000047704609380149884701BDC5090010AF
:104A14000000000000000000000000000000000092
:104A240000000000681000200000000000000000EA
:104A3400503300004C330000543300005233000064
:104A44004D5300004D430000533400004334000034
:104A5400F014002010000C00000000000000000012
:104A6400000000000000000000000000FF00000043
:084A740000000000000000003A
:04000005100001E9FD
:00000001FF
